:10000000ABC00000C4C00000C2C00000C0C00000FF
:10001000BEC00000BCC00000BAC00000B8C00000F4
:10002000B6C00000B4C00000B2C0000004C60000AA
:10003000AEC00000ACC00000AAC00000A8C0000014
:10004000A6C00000A4C00000A2C00000A0C0000024
:100050009EC000009CC000009AC0000098C0000034
:1000600096C0000094C0000092C0000090C0000044
:100070008EC000002E0355004E004F0053004D006F
:1000800041005300480042004F0058002000430048
:100090004F004E00540052004F004C004C004500F1
:1000A000520000001C0348004F005200490020008D
:1000B00043004F002E002C004C00540044002E0042
:1000C0000000040309040902290001010080FA0963
:1000D0000400000203000000092111010001225662
:1000E00000070502034000050705810340000512D3
:1000F000010002000000400D0F920000010102000B
:100100000105010905A1011500250135004501750D
:1001100001951005091901291081020501250746DD
:100120003B0175049501651409398142650095010B
:10013000810126FF0046FF000930093109320935E7
:100140007508950481020600FF0920950181020AC5
:10015000212695089102C00011241FBECFEFD2E0E6
:10016000DEBFCDBF11E0A0E0B1E0E0E7F0E102C00A
:1001700005900D92A230B107D9F721E0A2E0B1E0DD
:1001800001C01D92AC32B207E1F7B4D26FC738CFCD
:100190009093CD008093CC0088E18093C90086E0E5
:1001A0008093CA00089584B7877F84BF0FB6F89400
:1001B000A895809160008861809360001092600033
:1001C0000FBE80E890E00FB6F894809361009093A2
:1001D00061000FBE21C50895089542E360EC82E0FE
:1001E00060D442E361EC81E05CC408952091C800D2
:1001F00027FF03C08091CE000895EFE9FFE031971B
:10020000F1F700C00000019789F780E00895909110
:10021000C80095FFFCCF8093CE0008958091C80060
:1002200087FF08958091CE00F9CF4AB121E030E0F8
:10023000B90102C0660F771F8A95E2F7CB01462B02
:100240004AB99BB1809589238BB908954AB121E0C1
:1002500030E0B90102C0660F771F8A95E2F7CB0143
:10026000962F909594239AB99BB1892B8BB90895B9
:10027000DC0198E0FD01892F11928A95E9F780E869
:1002800013968C93139714968C93149715968C93BE
:10029000159716968C93169712969C9312978091A9
:1002A0000A0190910B01181619068CF488E0EDE014
:1002B000F1E001900D928A95E1F780910A01909109
:1002C0000B01019790930B0180930A01089580918F
:1002D0001601982F907486FF07C0282F207A09F006
:1002E00009C112961C92129787FF14C02091170122
:1002F00020FD06C0911104C022E012962C931297A3
:100300002091170120FF06C0911108C023E012962A
:100310002C9312972091170120FF08C0282F207AD4
:1003200009F0F0C024E012962C93129785FF14C0B8
:100330008091170180FD06C0992321F087E0129675
:100340008C9312978091170180FD06C0911104C013
:1003500086E012968C93129780911701982F9695AC
:1003600080911801879588278795892B13968C9300
:10037000139780911801982F969580911901879570
:1003800088278795892B14968C931497809119014F
:10039000982F969580911A01879588278795892BA4
:1003A00015968C93159780911A01982F96958091A8
:1003B0001B01879588278795892B16968C9316970E
:1003C0008091150183FF07C08D919C9111978260E8
:1003D00011969C938E938091150181FF07C08D919A
:1003E0009C911197846011969C938E938091150136
:1003F00082FF07C08D919C911197816011969C930B
:100400008E938091150180FF07C08D919C9111976B
:10041000886011969C938E938091150184FF07C08C
:100420008D919C911197806111969C938E938091F0
:10043000150187FF07C08D919C91119780621196DD
:100440009C938E938091150185FF07C08D919C919F
:100450001197806411969C938E938091160180FF72
:1004600007C08D919C911197806811969C938E93F3
:100470008091150186FF07C08D919C911197946022
:1004800011969C938E938091160181FF07C08D91E8
:100490009C911197986011969C938E938091160170
:1004A00082FF07C08D919C911197916011969C934A
:1004B0008E938091160183FF07C08D919C911197B7
:1004C000926011969C938E938091160184FF07C0D1
:1004D0008D919C911197906111969C938E9388E0D9
:1004E000FD01ADE0B1E001900D928A95E1F782E067
:1004F00090E0E8CE203809F0F7CE21E012962C9358
:100500001297F2CE203209F011CF25E00CCFCF9315
:10051000DF93CDB7DEB728970FB6F894DEBF0FBED6
:10052000CDBF80912301843009F0DBC082E080934D
:10053000E9008091E80082FF12C08091E80085FF09
:1005400009C050E040E067E070E0CE010196A2D122
:100550008111F7CF8091E8008B778093E80081E0EC
:100560008093E9008091E80080FF11C0CE010196E0
:100570007FDE50E040E068E070E0CE0101963CD1C3
:100580008111F7CF8091E8008E778093E80085E0B5
:100590004CDE44DE80E03BDE89E190E027DE8093A4
:1005A0001E0181E034DE89E190E020DE80931C01B1
:1005B00082E02DDE89E190E019DE80931D0183E069
:1005C00026DE89E190E012DE282F220F909117019C
:1005D0009170922B90931701982F991F9927991F2B
:1005E000809118018E7F892B8093180184E00FDEA3
:1005F00089E190E0FBDD282F220F90911801917086
:10060000922B90931801982F991F9927991F8091E9
:1006100019018E7F892B8093190185E0F8DD89E12E
:1006200090E0E4DD282F220F909119019170922B18
:1006300090931901982F991F9927991F80911A015A
:100640008E7F892B80931A0186E0E1DD89E190E0BD
:10065000CDDD282F220F90911A019170922B90934B
:100660001A01982F991F9927991F80911B018E7F3E
:10067000892B80931B0185E0E9DD90911E0180911B
:10068000150190FB80F991FB81F992FB82F993FBB4
:1006900083F994FB84F995FB85F996FB86F997FB22
:1006A00087F98093150190911C018091160190FBB0
:1006B00080F991FB81F992FB82F993FB83F994FB1A
:1006C00084F995FB85F996FB86F997FB87F980936A
:1006D00016018091170190911D0190FB80F9809384
:1006E000170128960FB6F894DEBF0FBECDBFDF917D
:1006F000CF910895A89584B7877F84BF0FB6F894EB
:10070000A8958091600088618093600010926000DD
:100710000FBE49DD789489E190E03ADD80E880936E
:1007200061001092610084E08093000110920C013E
:10073000C6E0D0E085E08ADD2FEF83EC99E0215020
:1007400080409040E1F700C0000085E06EDD2FEFB3
:1007500083EC99E0215080409040E1F700C0000018
:10076000219741F7D4DE67D48FE99FE00197F1F735
:1007700000C00000F7CF292F33272330310521F1A6
:1007800058F42130310599F022303105C1F090E064
:1007900080E030E020E00FC02132310541F122320B
:1007A0003105A9F786E590E021E031E004C082E15F
:1007B00090E02FEE30E0FA0131832083089589E242
:1007C00090E026EC30E0F7CF99278130910561F079
:1007D00028F00297E1F6E4E7F0E002C0E2ECF0E096
:1007E000849190E09F01E7CFE4EAF0E0F9CF89E05F
:1007F00090E028ED30E0DFCFAF92BF92CF92DF9252
:10080000FF920F931F93CF93DF936C01EB018A014B
:100810009BD1F82E811124C00115110539F0F80182
:1008200080819181C81BD90BC80ED91EB12CA12C77
:100830002097B1F08091E80085FD22C08091E8000A
:100840008E778093E800F7D301151105A1F0F80128
:1008500080819181A80EB91EB182A08285E0F82E18
:100860008F2DDF91CF911F910F91FF90DF90CF904F
:10087000BF90AF90089568D18823D1F2F82EF0CFC1
:10088000F60181916F018093F1002197FFEFAF1A7C
:10089000BF0ACECFAF92BF92CF92DF92FF920F935B
:1008A0001F93CF93DF936C01EB018A014DD1F82E9A
:1008B000811124C00115110539F0F8018081918161
:1008C000C81BD90BC80ED91EB12CA12C2097B1F092
:1008D0008091E80085FD22C08091E8008B778093AD
:1008E000E800A9D301151105A1F0F80180819181DB
:1008F000A80EB91EB182A08285E0F82E8F2DDF915F
:10090000CF911F910F91FF90DF90CF90BF90AF904C
:1009100008951AD18823D1F2F82EF0CF8091F100FA
:10092000F60181936F012197FFEFAF1ABF0ACECF77
:10093000FC0180912A0190912B0186179707A0F066
:100940006115710529F49091E8009E779093E80075
:1009500090E06115710551F4911108C08091E80093
:1009600082FF32C080E00895BC01F2CF8091230164
:100970008823B1F18530B1F18091E80083FD2EC06C
:100980008091E80082FDEACF8091E80080FFE1CF0E
:100990002091F20030E06115710519F02034310525
:1009A00058F091E02034310509F090E02091E80002
:1009B0002E772093E800CDCF81918093F100615094
:1009C00071092F5F3F4FE7CF80912301882341F0CA
:1009D000853041F08091E80083FFC0CF81E0089529
:1009E00082E0089583E00895FC0180912A019091AE
:1009F0002B0186179707A0F06115710529F48091E6
:100A0000E8008E778093E80090E06115710551F45D
:100A1000911108C08091E80082FF33C080E0089502
:100A2000BC01F2CF809123018823B9F18530B9F15F
:100A30008091E80083FD2FC08091E80082FDEACF1D
:100A40008091E80080FFE1CF2091F20030E0611555
:100A5000710519F02034310558F091E0203431054A
:100A600009F090E08091E8008E778093E800CDCF88
:100A700084918093F1003196615071092F5F3F4F4F
:100A8000E6CF80912301882341F0853041F08091A9
:100A9000E80083FFBFCF81E0089582E0089583E0FE
:100AA0000895982F953028F08F708093E90081E0A9
:100AB00008959093E900242F762F50E0981731F095
:100AC0007091EC002091ED005091F00021FD02C0EA
:100AD0009F5FE8CF3091EB003E7F3093EB00309189
:100AE000ED003D7F3093ED003091EB0031603093AD
:100AF000EB007093EC002093ED005093F0002091F8
:100B0000EE0027FDE5CF80E008958091240187FF66
:100B100013C08091E80082FF06C08091E8008B77C7
:100B20008093E80004C0809123018111F2CF0895E1
:100B3000809123018823D9F38091E80080FFF8CFCA
:100B40008091E8008E77ECCF2091E4003091E500B1
:100B500085E69091EC0090FF06C09091E80090FF30
:100B600006C080E008959091E80092FDFACF909140
:100B70002301992391F0953091F09091EB0095FD30
:100B800010C04091E4005091E5002417350709F3A7
:100B900081509A01F1F684E0089582E0089583E09F
:100BA000089581E0089541D043D08091D8008F7797
:100BB0008093D8008091D80080688093D80080917D
:100BC000D8008F7D8093D80084E089BD86E089BD00
:100BD00009B400FEFDCF1092230110921F01109264
:100BE00021011092200142E360E080E05ADF809111
:100BF000E1008E7F8093E1008091E200816080932C
:100C0000E2008091E20088608093E2008091E00041
:100C10008E7F8093E0000895E3E6F0E080818E7F90
:100C2000808381E080932201BECF1092E20008957C
:100C30001092E10008951F920F920FB60F921124A7
:100C40002F933F934F935F936F937F938F939F93D4
:100C5000AF93BF93EF93FF938091E10082FF0AC0AF
:100C60008091E20082FF06C08091E1008B7F80933B
:100C7000E100E0D18091E10080FF17C08091E200A7
:100C800080FF13C08091E2008E7F8093E20080910C
:100C9000E20080618093E2008091D80080628093BE
:100CA000D80019BC1092230197DA8091E10084FFEB
:100CB00027C08091E20084FF23C084E089BD86E0E4
:100CC00089BD09B400FEFDCF8091D8008F7D80934F
:100CD000D8008091E1008F7E8093E1008091E20056
:100CE0008F7E8093E2008091E20081608093E20039
:100CF00080911F018823D9F184E0809323016BDA6E
:100D00008091E10083FF22C08091E20083FF1EC03A
:100D10008091E100877F8093E10082E0809323014E
:100D200010921F018091E1008E7F8093E1008091FD
:100D3000E2008E7F8093E2008091E20080618093E8
:100D4000E20042E360E080E0ACDE74D1FF91EF911D
:100D5000BF91AF919F918F917F916F915F914F91D3
:100D60003F912F910F900FBE0F901F90189580917B
:100D7000E30087FD02C081E0C0CF83E0BECF1F93B8
:100D8000CF93DF93CDB7DEB7AA970FB6F894DEBF47
:100D90000FBECDBFE4E2F1E08091F100819321E04C
:100DA000EC32F207C9F721DA8091E80083FF10C026
:100DB0008091240190912501953009F4D8C000F567
:100DC000913009F48BC008F461C0933009F486C0F7
:100DD0008091E80083FF0AC08091E800877F8093BC
:100DE000E8008091EB0080628093EB00AA960FB63A
:100DF000F894DEBF0FBECDBFDF91CF911F91089554
:100E0000983009F4ECC0993009F4F6C0963001F737
:100E100080588230E8F680912601909127018C3D20
:100E200023E0920709F0C6C083E08A838AE28983BF
:100E30004FB7F894DE01139620E03EE051E2E32F35
:100E4000F0E050935700E49120FF03C0E295EF706B
:100E50003F5FEF708E2F90E0EA3008F4A9C0C7968C
:100E60008D939D932F5F243151F74FBF8091E80000
:100E7000877F8093E8006AE270E0CE01019658DD3A
:100E80008091E8008B778093E800A2CF803899F0BA
:100E9000823809F09DCF809128018F70853008F04D
:100EA00097CF8093E9008091EB0085FB882780F93C
:100EB0001092E90006C080912001909121019111CA
:100EC00082609091E800977F9093E8008093F10012
:100ED0001092F1008091E8008E7732C0282F2D7F8C
:100EE00009F076CF8823E9F0823009F071CF809144
:100EF0002601811120C0809128018F702FEF280FCB
:100F0000243008F065CF8093E9002091EB0020FFAA
:100F100012C09330C9F48091EB0080628093EB00A3
:100F20000AC080912601813009F052CF933009F038
:100F300080E0809321011092E9008091E800877F92
:100F40008093E800E2DD44CF9091EB0090619093B4
:100F5000EB0021E030E001C0220F8A95EAF72093F0
:100F6000EA001092EA008091EB008860D7CF8111EF
:100F70002FCF109126011F778091E3008078812B7D
:100F80008093E3008091E800877F8093E800BDDDD7
:100F90008091E80080FFFCCF8091E300806880931F
:100FA000E30083E0111101C082E08093230110CFA0
:100FB000C09656CF6091280170912901AE014F5F14
:100FC0005F4FD9DBBC01892B09F402CF9091E80077
:100FD000977F9093E80089819A8106DD51CF803810
:100FE00009F0F6CE8091E800877F8093E800809139
:100FF0001F018093F1006ECF8111EACE90912601FE
:10100000923008F0E5CE8091E800877F8093E80079
:1010100090931F017ADD80911F01882329F084E0DD
:1010200080932301DAD8D4CE8091E30087FDF7CFF7
:1010300081E0F6CF0895CF9380912301882391F02A
:10104000C091E900CF708091EC0080FD0DC080E080
:10105000C82B1092E9008091E80083FD90DECF70EC
:10106000C093E900CF91089580E8F2CFF894FFCFC4
:0210700004007A
:00000001FF
